:1000000035C1000064C1000062C1000060C1000091
:100010005EC100005CC100005AC1000058C1000070
:1000200056C1000054C1000052C1000050C1000080
:100030004EC100004CC100004AC1000048C1000090
:1000400046C100000C946E1042C1000040C1000087
:100050003EC100003CC100003AC100000C94DD0E1E
:1000600036C100000C94640C0C943B0C30C10000B1
:100070002EC100002CC100002AC1000028C10000D0
:100080000C94401024C1000022C1000020C10000D7
:100090001EC100001CC100001AC10000C9C7000039
:1000A00016C1000014C100000C94121010C1000011
:1000B0000EC100000CC100000AC100000C94E40F46
:1000C00006C1000004C1000002C1000000C1000020
:1000D000FEC00000FCC00000FAC00000F8C0000034
:1000E000F6C00000F00AF40AF80AFC0A000B040B40
:1000F000080B020C090C100C170C1E0C360C250CEE
:10010000360C2C0CC90CCC0CBB0CBF0CC30C030D57
:10011000D00CD40CDA0CDE0CE20CE80CEC0CF00C7D
:10012000030DF60CFA0CFE0CBF0DC40DC90DD30D5A
:10013000DD0D560EE70DEF0DF70D010E0B0E150E32
:10014000240E2E0E560E380E420E4C0E4661696C71
:10015000656420746F20626F6F74204C4944415273
:100160005F310000000A0B02090C0D0E08070304A2
:10017000010000000000000000000000000000007E
:10018000000000000000000000000000000000125D
:10019000111000000000000000000000000000003E
:1001A00000000000000000000000002200250028E0
:1001B000002B002E00310034000201000005010870
:1001C000010B0100002100240027002A002D00302F
:1001D00000330001010000040107010A01050505C3
:1001E00005070508080808020202020A0A080804AE
:1001F00004040401010101010101010303030303DC
:10020000030303040707070C0C0C0C0C0C0C0C026A
:1002100002020206060606060606060B0B0B0B0B71
:100220000B0B0B010210202008081020401020406A
:1002300080020102010804020101020408102040AA
:1002400080804020100804020180040201804020C8
:1002500010080402010804020101020408102040F1
:1002600080010204081020408000AD2E11241FBE22
:10027000CFEFD1E2DEBFCDBF00E00CBF13E0A0E0C6
:10028000B2E0EEE7F4E600E00BBF02C007900D928B
:10029000A43CB107D9F729E0A4ECB3E001C01D925A
:1002A000A530B207E1F711E0C6E3D1E000E006C0F7
:1002B00021970109802FFE010E942432C533D10706
:1002C00080E00807A9F70E94E8220C943D3298CEFE
:1002D00085ED8093BC008091BC0084FDFCCF109222
:1002E000EC04089540910904262F30E0240F311DBD
:1002F00021323105DCF42091EC042430C9F4FC01F6
:1003000080E090E0861758F4309109042191DC01D7
:10031000A751BC4FA30FB11D2C930196F3CF809131
:100320000904680F6093090480E0089581E008954E
:1003300082E0089508950895E091EE048091ED041F
:10034000E81730F4F0E0E151FB4F808190E0089530
:100350008FEF9FEF08959091EE048091ED04981730
:1003600050F4E92FF0E0E151FB4F208130E09F5F36
:100370009093EE0402C02FEF3FEFC90108958091E2
:10038000ED0490E02091EE04821B91090895CF9234
:10039000DF92EF92FF920F931F93CF93DF937C0135
:1003A000CB018A0120911205222389F0EB016B0118
:1003B000C40ED51ECC15DD0561F06991D701ED9114
:1003C000FC910190F081E02DC7011995F3CF642FC6
:1003D00089DFC801DF91CF911F910F91FF90EF90BE
:1003E000DF90CF900895CF93DF931F92CDB7DEB704
:1003F0006983209112052223D1F020910F0520322C
:1004000040F021E030E0FC013383228380E090E083
:1004100014C080911005E82FF0E0E753FC4F99815C
:1004200090838F5F8093100580930F0504C061E077
:10043000CE01019657DF81E090E00F90DF91CF91E0
:100440000895089580E090E00895EF92FF920F9351
:100450001F93CF93DF931F921F92CDB7DEB78C010E
:100460007A0162307105A1F138F46115710559F016
:100470006130710571F056C06330710579F16630F5
:10048000710598F14FC0FC0181A992A9A3A9B4A953
:100490004BC0AE014F5F5F4F64E40E944A1C811164
:1004A00049C0998120E030E0392F330FA90160E085
:1004B00070E0232B51F5F80145A956A967A970AD45
:1004C000F7014083518362837383F80116A232C01F
:1004D000FC0181AD92ADA3ADB4AD26C0FC01FD968B
:1004E00080819181A281B3811FC0AE014F5F5F4FB8
:1004F00064E60E944A1C81111DC0298180E090E0C1
:10050000922F990FA0E0B0E00FC0F7014083518314
:1005100062837383F80145AB56AB67AB70AF91E074
:1005200096A308C08CEF06C0F70180839183A28355
:10053000B38380E00F900F90DF91CF911F910F91C7
:10054000FF90EF9008952F923F924F925F926F929B
:100550007F928F929F92AF92BF92CF92DF92EF9253
:10056000FF920F931F93CF93DF93CDB7DEB7EF9733
:100570000FB6F894DEBF0FBECDBF6C015B01DC018E
:1005800050961C9241E060E80E94121D41E06FEF1E
:10059000C6010E94121D40E060E0C6010E94121DCB
:1005A000F601E95DFE4F408161E9C6010E94121D1E
:1005B00041E060E0C6010E94121D40E06FEFC601FD
:1005C0000E94121D40E060E8C6010E94121D41E039
:1005D00060E0C6010E94121D91E09983811123C041
:1005E000412C512C3201BFEF4B1A5B0A6B0A7B0A7C
:1005F000998190FF10C081110EC0E8EC4E16510495
:100600006104710471F0AE014F5F5F4F60E0C6019D
:100610000E947E1CE8CFF8EC4F165104610471046F
:1006200011F489EF9CC281119AC2C6010E94A314E1
:10063000811195C283E0F601E15EFE4F8083B6969C
:10064000E080F1800CE010E020E030E0AE01465E9A
:100650005F4F64E1349780810E947D19892B11F0EE
:100660008CEE7DC2F501168AD501108211821282AC
:1006700013826CA170E0762F66278DA1680F711D23
:100680001482158216821782E9A1F0E0FE2FEE2770
:10069000FF0F2F01612C712C1C964D925D926D9273
:1006A0007C921F978BA190E0982F8827990F8C013F
:1006B00020E030E050960D931D932D933C9353977B
:1006C0000C8D10E0102F00278D8D7801E80EF11CA5
:1006D000FFAEEEAE5596FC92EE9254978A8CD60100
:1006E000A75CBE4F2D913C9111975B979C90283E43
:1006F00003E0300709F445C0629FC001639F900D7D
:10070000729F900D11248C509E4F68EE73E00E94F2
:100710001032D6015D962D913D914D915C9190974F
:100720005A968C91882369F1EEACFFACE29EC00131
:10073000E39E900DF29E900D1124892F99278C0134
:1007400020E030E008AB19AB2AAB3BAB40165106BA
:100750006206730629F4911017C060EE7AE827C08C
:100760009F01DB010E94F330A3019201E8A8F9A8E0
:100770000AA91BA92E193F09400B510B0E94AB304F
:10078000B9019920A1F002C068EB72E2CB01969505
:10079000879596958795D50119969C938E93189772
:1007A0006295660F660F607C57966C9304C0F501E6
:1007B00071876087178A1FA61EA6882D8877882EC6
:1007C000912CE3E095948794EA95E1F788AA882034
:1007D00061F0882D8D7F01E00DAB853041F084EF15
:1007E000880D843020F01DAA02C011E01DAB41E04D
:1007F0006FEFC6010E94121D811107C0AE01425D5C
:100800005F4F66EBC6010E944A1C9EA520E030E0C7
:10081000392F330F790100E010E0EAAEFBAE0CAFE8
:100820001DAF811105C040E06FEFC6010E94121D8F
:10083000F601EE5CFE4FEAACFBAC0CAD1DADE08208
:10084000F182028313838111FDC0D6019596BC917C
:10085000BCABBB2309F479C0F501E484F5840685BB
:100860001785D6015A968C918823A1F0A489B58961
:10087000F601258D368D478D50A10E94E930DC01AF
:10088000CB0180589F4FAF4FBF4F892F9A2FAB2F6F
:10089000BB2703C080E090E0DC01A8019701280F8E
:1008A000391F4A1F5B1FA8EEB3E00E94E930DC014C
:1008B000CB019058AF4FBF4FCD01AA27BB27F60100
:1008C000E65DFE4F892B8A2B8B2B99F48EEA97E8F5
:1008D000AFE8B2E080839183A283B3831EEAE12E66
:1008E00017E8F12E0FE812E0EEAAFFAA08AF19AF41
:1008F00008C010821182128213821EAA1FAA18AE8B
:1009000019AED5011B961C921E921A97AE01465D38
:100910005F4F60E070E0C60198DD4AA55BA56CA55D
:100920007DA5411551056105710559F0FF24F3942A
:100930000EA91FA928AD39AD4017510762077307EB
:1009400008F0F12C882311F084C0F12CD601979681
:100950003C903320F9F0AE014A5D5F4F62E070E0F9
:10096000C60173DD4EA15FA168A579A541155105AA
:100970006105710559F0EE24E3940AAD1BAD2CAD71
:100980003DAD401751076207730708F0E12C88233B
:1009900011F064C0E12CD60198962C90222071F1C0
:1009A0000EAD1FAD0115110561F0962D852D742D2D
:1009B0006627980140E050E00E94AB3029013A01DF
:1009C00003C0412C512C3201AE014F5F5F4F63E0F9
:1009D00070E0C6013ADD49815A816B817C81411505
:1009E00051056105710531F091E044165506660622
:1009F000770608F090E0882311F032C090E01DA93E
:100A00008FEF113099F1880D833008F49EC008A94A
:100A1000063009F49CC0093009F499C0882D8D7FF7
:100A2000883009F496C011E0E11609F492C0043050
:100A300009F491C0913009F48EC0F11609F48DC00B
:100A4000F12C09C0212C312CF12C90E0E12C1CAAB6
:100A500007C0212C312C90E0E12C02C0212C90E029
:100A6000D5011B961C921E921A9780E00CA90111C9
:100A700002C0FF24F394D60196963C9196979B96DC
:100A8000FC9208A921E0043011F0311120E0D601D8
:100A90009C962C93311002C0EE24E394F601E5A657
:100AA000211001C091E0D6019E969C93F501808FA4
:100AB0009601265B3F4F99E1F901DE011196019005
:100AC0000D929A95E1F7D5011896ED91FC91199741
:100AD00057969C9157971A966D917C911B971C96EF
:100AE000ED90FD900D911C911F9750964D905D904B
:100AF0006D907C90539754964D915C9155971496B8
:100B00008D909D90AD90BC9017978D829E82AF8204
:100B1000B886FA87E9877C876B87ED86FE860F8724
:100B2000188B498A5A8A6B8A7C8A5E8B4D8B988F88
:100B3000898F89E1FE013196D90101900D928A9544
:100B4000E1F7C6010E94611A0AC085E08FCF84E0F8
:100B50008DCF83E08BCF82E089CF81E087CFEF9686
:100B60000FB6F894DEBF0FBECDBFDF91CF911F91BE
:100B70000F91FF90EF90DF90CF90BF90AF909F903C
:100B80008F907F906F905F904F903F902F9008953F
:100B90003F924F925F926F927F928F929F92AF920D
:100BA000BF92CF92DF92EF92FF920F931F93CF935A
:100BB000DF9300D01F92CDB7DEB78A01AE014F5F41
:100BC0005F4F0E945E1D382E811136C049805A80C9
:100BD0006B807C8088EE882E83E0982EA12CB12C2F
:100BE000C301B201A50194010E94AB3069017A01F1
:100BF000A8EEB3E00E94E930A3019201261B370B57
:100C0000480B590BAFEFBFEF0E94E9306C507E4F9D
:100C10008F4F9F4FA50194010E94AB307601DD24D8
:100C2000CC24DA01C9018C0D9D1DAE1DBF1DF8013C
:100C300080839183A283B383832D0F900F900F90B5
:100C40000F90DF91CF911F910F91FF90EF90DF9068
:100C5000CF90BF90AF909F908F907F906F905F905C
:100C60004F903F9008950F931F93CF93DF931F9260
:100C7000CDB7DEB78B011982AE014F5F5F4F61E0E8
:100C80000E947E1C811116C0998194FB222720F9B5
:100C9000F801208393FB222720F9228392FB22274D
:100CA00020F9218396FB222720F92383991F992776
:100CB000991F94830F90DF91CF911F910F91089509
:100CC0005F926F927F928F929F92AF92BF92CF92DC
:100CD000DF92EF92FF920F931F93CF93DF93CDB7E5
:100CE000DEB761970FB6F894DEBF0FBECDBF7C01B3
:100CF0008B01FC018089FB018083AE014A5F5F4F5D
:100D000068EFC7010E944A1C582E811127C0AE010E
:100D10004F5F5F4F64E0C7010E94041C582E811191
:100D20001DC02E813F812115310569F040E050E062
:100D300069817A818B819C810E94AB30F801268386
:100D4000378340875187F80186819781A085B185D7
:100D5000F701868B978BA08FB18F02C0511051C1C4
:100D6000F8011286AE014F5F5F4F60E2C7010E943B
:100D70004A1C582E811145C189819A81009769F4D6
:100D8000F701858D968DA78DB0A1F801858796878F
:100D9000A787B08BF701128E13C033E0880F991F1D
:100DA0003A95E1F7A0E0B0E0F80185879687A7873C
:100DB000B08BF701858F968FA78FB0A381E0828FCC
:100DC000AE014F5F5F4F68E2C7010E944A1C582E78
:100DD000811117C189819A819F708115F8E09F0761
:100DE00008F090514AEF489F9001499F300D11241F
:100DF000C901330FAA0BBB0BF801818B928BA38B1C
:100E0000B48B5801F1E2AF0EB11C470125E2820E0E
:100E1000911C380185E1680E711CC12CD12CA501F3
:100E2000B601C70112DB582E8111EBC0F40181918C
:100E30004F01F30181933F01FFEFCF1ADF0A24E056
:100E4000A20EB11C86E0C816D10449F7AE014F5F6F
:100E50005F4F61E0C7010E947E1C582E8111D1C0F6
:100E60008981F701E35EFE4F808387FF04C081E044
:100E7000F80181AF02C0F80111AEF80181ADF701B0
:100E8000E75BFF4F808380ED97E0A0E0B0E08A87CA
:100E90009B87AC87BD871E821F821886198686E3D2
:100EA0009BE0A0E0B0E0F80182839383A483B58344
:100EB000BE016F5F7F4FC701D6DE582E8111A1C0E2
:100EC0008981811107C08A81811104C08B818823A7
:100ED00009F449C0AE01465F5F4F62E0C7010E945E
:100EE0005E1D81118DC089818823A9F08A859B852B
:100EF000AC85BD85825B9D4FAF4FBF4FF8014281EE
:100F0000538164817581840F951FA61FB71F82834B
:100F10009383A483B5838B81882369F08A859B851D
:100F2000AC85BD858E549D4FAF4FBF4F880F991F25
:100F3000AA1FBB1F0BC08A818823A9F08A859B85C5
:100F4000AC85BD858C569D4FAF4FBF4FF801428198
:100F5000538164817581840F951FA61FB71F8283FB
:100F60009383A483B5838C818823F1F0AE014A5F1B
:100F70005F4F63E0C7010E945E1D4E815F816885FF
:100F800079854C565D4F6F4F7F4FF801828093807B
:100F9000A480B580480D591D6A1D7B1D4283538373
:100FA0006483758381112CC08D8181110BC0F80180
:100FB00082819381A481B581F701828B938BA48B6D
:100FC000B58B1FC0AE01425F5F4F64E0C7010E9456
:100FD0005E1D4E855F85688979894A5D5D4F6F4FDB
:100FE0007F4FF80182809380A480B580480D591D01
:100FF0006A1D7B1D42835383648375838823B9F202
:10100000582E852D61960FB6F894DEBF0FBECDBF6A
:10101000DF91CF911F910F91FF90EF90DF90CF90D4
:10102000BF90AF909F908F907F906F905F9008954A
:101030001F920F920FB60F9211240BB60F922F939F
:101040003F934F935F936F937F938F939F93AF9350
:10105000BF93EF93FF938091B900887F803609F4A6
:101060009CC068F5883209F45BC090F4803109F4C3
:1010700054C038F4882309F4F6C0883009F44DC010
:10108000F5C0883109F44CC0803209F45DC0EEC06F
:10109000803409F468C048F4803309F455C08833BB
:1010A00009F0E4C08093EA04D8C0803509F44FC049
:1010B000883509F45DC0883409F0D8C0D6C08839B5
:1010C00009F4C7C0A8F4883709F467C038F4883633
:1010D00009F463C0803709F460C0C8C0883809F4D7
:1010E000B8C0803909F45FC0803809F0BFC05BC068
:1010F000803B09F486C038F4803A09F466C0883A27
:1011000009F47FC0B3C0803C09F4A7C0883C09F44F
:10111000A4C0883B09F48AC0A9C08091E70410C02C
:101120009091E9048091E804981770F5E091E90442
:1011300081E08E0F8093E904F0E0EA53FB4F808159
:101140008093BB0085EC86C08093EA048EC0E0915A
:10115000E90481E08E0F8093E9048091BB00F0E008
:10116000EA53FB4F80839091E9048091E8046EC0BC
:10117000E091E90481E08E0F8093E9048091BB0047
:10118000F0E0EA53FB4F80838091EB0481116DC046
:1011900081E08093E60484EA61C083E08093EC04FC
:1011A00010922B04CFCF80912B04803208F051C0D5
:1011B000E0912B0481E08E0F80932B048091BB0083
:1011C000F0E0E55FFB4F8083BDCF85EC8093BC00F2
:1011D0001092EC0480912B04803230F4E0912B04C7
:1011E000F0E0E55FFB4F108260912B0470E0E0912E
:1011F0000109F09102098BE094E0199510922B04FB
:1012000035C084E08093EC0410920A041092090423
:10121000E0910309F0910409199580910904811165
:1012200005C081E0809309041092E903E0910A046B
:1012300081E08E0F80930A04F0E0E751FC4F80813B
:101240008093BB0090910A0480910904981708F4D8
:1012500079CF85E88093BC0009C085EC8093BC0001
:101260001092EC0403C01092EA0432D8FF91EF917F
:10127000BF91AF919F918F917F916F915F914F91AE
:101280003F912F910F900BBE0F900FBE0F901F90AC
:101290001895089530910F05313208F04AC08091B9
:1012A000EC048111FCCF9091110522E02093EC0415
:1012B0006093EB042FEF2093EA041092E90430933B
:1012C000E804E9ECF3E0A6ECB4E020E0321721F00A
:1012D00041914D932F5FFACF1092E7042091E704DC
:1012E000990F922B9093E7049091E604913061F46A
:1012F0001092E6049091E7049093BB009091BC009B
:1013000093FDF8CF95EC01C095EE9093BC009091C1
:10131000EC049230E1F39091EA049F3F79F08091E0
:10132000EA04803241F08091EA04803331F084E0B5
:1013300005C081E003C082E001C083E01092100587
:1013400010920F05109212050895FC01538D448DE3
:10135000252F30E0842F90E0821B930B541710F060
:10136000CF96089501970895FC01918D828D98176D
:1013700061F0828DDF01A80FB11D5D968C91928D79
:101380009F5F9F73928F90E008958FEF9FEF089576
:10139000FC01918D828D981731F0828DE80FF11D3F
:1013A000858D90E008958FEF9FEF0895FC01918D5A
:1013B000228D892F90E0805C9F4F821B91098F7353
:1013C0009927089583E195E0F1DF21E0892B09F465
:1013D00020E0822F0895FC01848DDF01A80FB11D4C
:1013E000A35ABF4F2C91848D90E001968F7399275B
:1013F000848FA689B7892C93A089B1898C91837039
:1014000080648C93938D848D981306C00288F38931
:10141000E02D80818F7D80830895EF92FF920F935E
:101420001F93CF93DF93EC0181E0888F9B8D8C8D90
:10143000981305C0E889F989808185FD25C0F62EBD
:101440000B8D10E00F5F1F4F0F731127E02E8C8D57
:10145000E8120BC00FB607FCFACFE889F989808142
:1014600085FFF5CFCE01B7DFF2CF8B8DFE01E80F00
:10147000F11DE35AFF4FF0829FB7F8940B8FEA8972
:10148000FB89808180620AC09FB7F894EE89FF894A
:101490006083E889F98980818370806480839FBF3D
:1014A00081E090E0DF91CF911F910F91FF90EF903D
:1014B0000895CF93DF93EC01888D8823C1F0EA89EA
:1014C000FB89808185FD05C0A889B9898C9186FD3D
:1014D0000EC00FB607FCF5CF808185FFF2CFA8893B
:1014E000B9898C9185FFEDCFCE0175DFE8CFDF9113
:1014F000CF91089580E090E0892B19F063DF81118E
:1015000025C080E090E0892B41F080E090E0892BBD
:1015100021F00E94000081111CC080E090E0892B26
:1015200041F080E090E0892B21F00E9400008111C1
:1015300013C080E090E0892BA1F080E090E0892B3F
:1015400081F00E94000081110AC008950E940000ED
:10155000D8CF0E940000E1CF0E940000EACF0C9497
:10156000000008953FB7F8948091C2049091C3049D
:10157000A091C404B091C50426B5A89B05C02F3F17
:1015800019F00196A11DB11D3FBFBA2FA92F982FA9
:101590008827820F911DA11DB11DBC01CD0142E024
:1015A000660F771F881F991F4A95D1F70895CF932B
:1015B000DF93DC014770552766277727FA013197BB
:1015C000CD91DC911197E730F10530F48827EE5882
:1015D000FF4F8F4F0C942432EC81FD8161E01BC0E2
:1015E000EC81FD8165E017C0EC81FD8164E013C0F2
:1015F000EC81FD8166E00FC0EC81FD8162E00BC0F3
:10160000EC81FD816AE007C0EC81FD8168E003C0E8
:10161000EC81FD8169E0CD01DF91CF911994CF93E9
:10162000DF93EC01CB01BA0126E030E040E050E06E
:101630000E94CD30623071058105910559F18CF41D
:101640006115710581059105F1F061307105810524
:101650009105C1F5E881F9810480F581E02D65E00F
:101660002DC0643071058105910511F1D4F065300C
:1016700071058105910531F5E881F9810480F581D5
:10168000E02D66E01BC0E881F9810480F581E02D42
:1016900064E014C0E881F9810480F581E02D61E007
:1016A0000DC0E881F9810480F581E02D63E006C07A
:1016B000E881F9810480F581E02D62E0CE01DF91BF
:1016C000CF911994DF91CF910895437055276627E4
:1016D0007727DC01ED91FC910480F581E02D42300B
:1016E00051056105710571F04330510561057105C2
:1016F00059F0413051056105710511F065E005C0F3
:1017000066E003C06AE001C069E01994CF93DF93FB
:10171000EC01CB01BA0123E030E040E050E00E9450
:10172000CD30613071058105910581F06230710520
:101730008105910591F0672B682B692BC1F4E88135
:10174000F9810480F581E02D64E00DC0E881F98124
:101750000480F581E02D61E006C0E881F981048014
:10176000F581E02D62E0CE01DF91CF911994DF91F8
:10177000CF9108954370552766277727DC01ED91B7
:10178000FC910480F581E02D423051056105710521
:1017900071F0433051056105710559F04130510533
:1017A0006105710511F062E005C063E003C061E00E
:1017B00001C060E01994CF93DF93EC0120E030E0AA
:1017C000A9016C897D898E899F890E940032181633
:1017D0001CF4E8A9F9A902C0EAA9FBA9DF91CF91FD
:1017E00019940F931F93DC0113960C91139710E03B
:1017F00009301105D8F5F8018827E758FF4F8F4FBA
:101800000C942432ED91FC9111970084F185E02D28
:1018100029C0ED91FC9111970284F385E02D22C03F
:10182000ED91FC9111970484F585E02D1BC0ED919D
:10183000FC9111970684F785E02D14C0ED91FC9181
:1018400011970088F189E02D0DC0ED91FC91119761
:101850000288F389E02D06C0ED91FC911197048870
:10186000F589E02DCD011F910F9119941F910F91D2
:1018700008950E9432321F920F920FB60F921124D8
:101880000BB60F922F933F934F935F936F937F937A
:101890008F939F93AF93BF93EF93FF9383E195E073
:1018A0009ADDFF91EF91BF91AF919F918F917F91C1
:1018B0006F915F914F913F912F910F900BBE0F90C1
:1018C0000FBE0F901F9018951F920F920FB60F9298
:1018D00011240BB60F922F938F939F93EF93FF9347
:1018E000E0912305F09124058081E0912905F09194
:1018F0002A0582FD12C0908180912C058F5F8F7325
:1019000020912D05821751F0E0912C05F0E0ED5E5D
:10191000FA4F958F80932C0501C08081FF91EF9144
:101920009F918F912F910F900BBE0F900FBE0F9034
:101930001F901895362F90E0FC01ED59FE4F449111
:10194000FC01ED5DFD4F2491FC01E352FE4F9491AB
:10195000992309F46CC0442309F455C050E0FA01FE
:101960003197E231F10508F04EC08827EE57FF4F5E
:101970008F4F0C942432809180008F7707C0809124
:1019800080008F7D03C080918000877F80938000DE
:101990003AC084B58F7702C084B58F7D84BD33C0D3
:1019A0008091B0008F7703C08091B0008F7D8093CD
:1019B000B00029C0809190008F7707C0809190007F
:1019C0008F7D03C080919000877F809390001BC023
:1019D0008091A0008F7707C08091A0008F7D03C009
:1019E0008091A000877F8093A0000DC0809120018E
:1019F0008F7707C0809120018F7D03C080912001E7
:101A0000877F80932001E92FF0E0EE0FFF1FE7555D
:101A1000FE4FA591B4919FB7F894311104C08C91F9
:101A20002095282302C0EC912E2B2C939FBF089564
:101A3000CF93DF93FC012381222321F1EC018481E8
:101A40000E940C188D810E940C188B81843011F03B
:101A5000883029F48E810E940C188F8105C0833054
:101A600011F0863019F48E810E940C188FA58F3FDB
:101A700049F00E940C186EA581E068278FA5DF91C0
:101A8000CF9158CFDF91CF910895CF93DF93FC0191
:101A90002381222399F0EC010190F081E02D048054
:101AA000F581E02D60E019958FA58F3F39F00E94F8
:101AB0000C186EA58FA5DF91CF913CCFDF91CF9110
:101AC0000895CF92DF92EF92FF920F931F93CF93DF
:101AD000DF93EC019B81943041F0983031F09330EA
:101AE00031F0963021F012E003C014E001C013E0A1
:101AF0002496E12CF12CC62ED12C01E0C6010E2C2F
:101B000002C0959587950A94E2F76C8180FD602765
:101B1000899110DF8FEFE81AF80AE11678F3DF9168
:101B2000CF911F910F91FF90EF90DF90CF9008958C
:101B30001F93CF93DF93182FEB010E940C1820976F
:101B400011F460E004C0CF3FD10531F461E0812F92
:101B5000DF91CF911F91EECEE12FF0E0ED59FE4FD6
:101B6000E4918E2F90E0FC013197E231F10508F00D
:101B70009DC08827EC56FF4F8F4F0C94243284B5BC
:101B8000806884BDC7BD97C084B5806284BDC8BD70
:101B900092C080918000806880938000D0938900FB
:101BA000C093880088C0809180008062809380000C
:101BB000D0938B00C0938A007EC0809180008860A3
:101BC00080938000D0938D00C0938C0074C080916E
:101BD000B00080688093B000C093B3006CC0809167
:101BE000B00080628093B000C093B40064C0809164
:101BF0009000806880939000D0939900C0939800E3
:101C00005AC080919000806280939000D0939B0096
:101C1000C0939A0050C0809190008860809390009B
:101C2000D0939D00C0939C0046C08091A000806826
:101C30008093A0008091A0008F7B8093A000D09320
:101C4000A900C093A80037C08091A0008062809353
:101C5000A000D093AB00C093AA002DC08091A0003B
:101C600088608093A000D093AD00C093AC0023C0E7
:101C700080912001806880932001D0932901C09336
:101C8000280119C080912001806280932001D093A7
:101C90002B01C0932A010FC080912001886080939E
:101CA0002001D0932D01C0932C0105C0C038D1056F
:101CB0000CF04CCF46CFDF91CF911F910895823029
:101CC000910538F0880F991F880F991F0597019784
:101CD000F1F70895CF93DF93EC01E881F981048057
:101CE000F581E02D8A81811102C060E001C062E0CF
:101CF000CE011995E881F9810480F581E02D8A8172
:101D0000811102C061E001C063E0CE0119958CA58C
:101D10009DA5D5DFE881F9810480F581E02D8A81D8
:101D2000811102C060E001C062E0CE01DF91CF917D
:101D300019948F929F92AF92BF92CF92DF92EF92BF
:101D4000FF926B017C010EDC4B015C01C114D104DC
:101D5000E104F104E9F006DCDC01CB018819990902
:101D6000AA09BB09883E9340A105B10578F321E09B
:101D7000C21AD108E108F10888EE880E83E0981EA7
:101D8000A11CB11CC114D104E104F10421F7DECF80
:101D9000FF90EF90DF90CF90BF90AF909F908F908B
:101DA00008952FB7F8946091BE047091BF0480919C
:101DB000C0049091C1042FBF08951F920F920FB6D7
:101DC0000F9211242F933F938F939F93AF93BF93C1
:101DD0008091BE049091BF04A091C004B091C10451
:101DE0003091BD0423E0230F2D3720F40196A11D6F
:101DF000B11D05C026E8230F0296A11DB11D209339
:101E0000BD048093BE049093BF04A093C004B0931C
:101E1000C1048091C2049091C304A091C404B09104
:101E2000C5040196A11DB11D8093C2049093C30403
:101E3000A093C404B093C504BF91AF919F918F91BB
:101E40003F912F910F900FBE0F901F901895FC019E
:101E50009081903388F5818128E830E0281B310992
:101E600087FD3395220F331F220F331F621773072D
:101E700084F0828148E552E0481B510987FD539563
:101E8000440F551F440F551F9B01461757070CF46D
:101E90009A0122503109220F331F4FB7F894892F2E
:101EA00090E0FC01EE0FFF1F8E0F9F1FFC01E35D12
:101EB000FB4F328321834FBF08951F93CF93DF934E
:101EC000EC01162F8881803308F04DC0862F0E94C8
:101ED0000C188881E82FF0E09F01220F331FE20FDA
:101EE000F31FE35DFB4F1F739081907C192B1083D0
:101EF00019821A826CE00E9404329CE0899FB00132
:101F0000112440E050E09B01240F351FF901EE0F32
:101F1000FF1F2E0F3F1FF901E35DFB4F908196FDE0
:101F200016C04F5F5F4F4C30510569F7813001F5A6
:101F30001092800082E080938100109285001092C0
:101F40008400B19A80916F00826080936F00E88175
:101F5000F0E0CF01880F991FE80FF91FE35DFB4FF9
:101F60008081806480838881DF91CF911F91089563
:101F7000823061F41092900080939100109295004D
:101F80001092940088BB80937100E1CF833069F494
:101F90001092A00082E08093A1001092A500109200
:101FA000A40089BB80937200D2CF8111D0CF109250
:101FB000200182E0809321011092250110922401DA
:101FC0008ABB80937300C3CF1F920F920FB60F92FC
:101FD00011240BB60F922F933F934F935F936F9300
:101FE0007F938F939F93AF93BF93EF93FF9348E2B9
:101FF00051E064E271E080E090E00E94151BFF91E7
:10200000EF91BF91AF919F918F917F916F915F9170
:102010004F913F912F910F900BBE0F900FBE0F90DD
:102020001F9018951F920F920FB60F9211240BB6A6
:102030000F922F933F934F935F936F937F938F9361
:102040009F93AF93BF93EF93FF9348EA50E064EA06
:1020500070E083E090E00E94151BFF91EF91BF912B
:10206000AF919F918F917F916F915F914F913F9130
:102070002F910F900BBE0F900FBE0F901F901895D1
:102080001F920F920FB60F9211240BB60F922F933F
:102090003F934F935F936F937F938F939F93AF93F0
:1020A000BF93EF93FF9348E950E064E970E082E06A
:1020B00090E00E94151BFF91EF91BF91AF919F910E
:1020C0008F917F916F915F914F913F912F910F90E1
:1020D0000BBE0F900FBE0F901F9018951F920F927E
:1020E0000FB60F9211240BB60F922F933F934F937D
:1020F0005F936F937F938F939F93AF93BF93EF9370
:10210000FF9348E850E064E870E081E090E00E94CE
:10211000151BFF91EF91BF91AF919F918F917F918F
:102120006F915F914F913F912F910F900BBE0F9048
:102130000FBE0F901F901895CF92DF92EF92FF92F3
:102140001F93CF93DF931F92CDB7DEB77C0140E0A2
:1021500063E80E94121D182F811117C0C12CD12CC9
:10216000AE014F5F5F4F63E8C7010E947E1C182FCE
:10217000898181110AC0111108C08FEFC81AD80ACD
:1021800088ECC816D10461F719EF41E063E8C70194
:102190000E94121D812B0F90DF91CF911F91FF9014
:1021A000EF90DF90CF900895AF92BF92DF92EF92C1
:1021B000FF920F931F93CF93DF93CDB7DEB769974D
:1021C0000FB6F894DEBF0FBECDBF8C015B017C0162
:1021D00083EEE81A8EEFF80AF701D08040EC61E058
:1021E000C8010E94121D811126C0BE016F5F7F4F82
:1021F000C8010E94A30281111EC041E06FEFC80117
:102200000E94121D811117C0A50166EBC8010E9432
:102210004A1C811110C040E06FEFC8010E94121DDE
:10222000811109C04D2D61E0C8010E94121D81116C
:1022300002C0F701D08269960FB6F894DEBF0FBED8
:10224000CDBFDF91CF911F910F91FF90EF90DF9065
:10225000BF90AF9008952F923F924F925F926F92EE
:102260007F928F929F92AF92BF92CF92DF92EF9226
:10227000FF920F931F93CF93DF93CDB7DEB7AC9749
:102280000FB6F894DEBF0FBECDBF1E8E1F8E18A2F4
:1022900019A21AA21BA21CA21DA29C0121523F4FEF
:1022A0003BA72AA7F901D080F7E0DF1609F4B3C2F3
:1022B000E62E8C0141E060E80E94121DF82E41E0FC
:1022C0006FEFC8010E94121DF82A40E060E0C801CB
:1022D0000E94121DF82A46E06FEFC8010E94121DED
:1022E000F82AAE014A5D5F4F63E8C8010E947E1C78
:1022F000F82A4EA1446063E8C8010E94121DF82A22
:1023000047E06FEFC8010E94121DF82A41E061E822
:10231000C8010E94121DF82AC8010E94DC1BF82A7D
:1023200041E060E8C8010E94121DF82A2E2D21709C
:10233000222EE0FE54C0D0FC52C04BE664E9C80136
:102340000E94121DC82EC801F7DE8C29F82AAE01A2
:10235000465E5F4F60E9C8010E94041CF82A8A8D1E
:102360009B8DAC8DBD8D392F3F77332E4FE0B695C9
:10237000A795979587954A95D1F7E82FE170CE2ECE
:1023800044E264E9C8010E94121DF82AC801D4DEA3
:10239000F82AAE01465E5F4F60E9C8010E94041C46
:1023A000F82A8A8D9B8D2C8D3D8D3C8B2D8B9E8BA1
:1023B0008F8B45E264E9C8010E94121DF82AC8010A
:1023C000BBDEF82AAE01465E5F4F60E9C8010E949D
:1023D000041CF82A8C8D9D8D988F898F02C0C12C8A
:1023E000312CFE2DF270F9A7E1FE3CC1D1FC3AC1BF
:1023F00042E064E9C8010E94121DB82EC8019CDEAB
:102400008B29F82AAE01495D5F4F60E9C8010E943F
:102410007E1CF82A4BE764E9C8010E94121DF82AC5
:10242000C8018ADEF82AAE01485D5F4F60E9C80145
:102430000E947E1CF82A47E764E9C8010E94121D29
:10244000F82AC80179DEF82AAE01465E5F4F60E9DE
:10245000C8010E94041CF82A8A8D9B8DAC8DBD8D0D
:10246000AC01BD01E9E17695679557954795EA95E9
:10247000D1F74983AC01BD01F2E176956795579597
:102480004795FA95D1F74F774A83AC01BD012BE010
:1024900076956795579547952A95D1F74F774B8352
:1024A000AC01BD0134E076956795579547953A950F
:1024B000D1F74F774C838F70880F880F880F8EA3CA
:1024C00048E764E9C8010E94121DF82AC80134DEF9
:1024D000F82AAE01465E5F4F60E9C8010E94041C05
:1024E000F82A8A8D9B8DAC8DBD8DAC01BD01EDE1CF
:1024F0007695679557954795EA95D1F72EA1420FA6
:102500004D83AC01BD01F6E17695679557954795EA
:10251000FA95D1F74F774E83AC01BD012FE0769548
:102520006795579547952A95D1F74F774F83292F70
:102530002F772887AC01BD0176956795579547950C
:102540004F77498781708295880F880F807C8EA392
:1025500049E764E9C8010E94121DF82AC801ECDDB0
:10256000F82AAE01465E5F4F60E9C8010E94041C74
:10257000F82A8A8D9B8DAC8DBD8DAC01BD01EAE141
:102580007695679557954795EA95D1F72EA1420F15
:102590004A87AC01BD01F3E176956795579547955C
:1025A000FA95D1F74F774B87AC01BD012CE07695BA
:1025B0006795579547952A95D1F74F774C87AC018A
:1025C000BD0135E076956795579547953A95D1F7D2
:1025D0004F774D878F71880F880F8EA34AE764E984
:1025E000C8010E94121DF82AC801A6DDF82AAE0112
:1025F000465E5F4F60E9C8010E94041CF82A8A8D7C
:102600009B8DAC8DBD8DAC01BD01EEE176956795DE
:1026100057954795EA95D1F72EA1420F4E87AC0109
:10262000BD01F7E17695679557954795FA95D1F7EE
:102630004F774F872A2F2F77288BAC01BD0129E0D8
:1026400076956795579547952A95D1F74F77498B9A
:1026500032E0B695A795979587953A95D1F78F77FC
:102660008A8B1B8A2E2D24702CA7E2FE98C0D2FCE8
:1026700096C04BE764E9C8010E94121DB82EC8013C
:102680005BDD8B29F82AAE01425E5F4F60E9C8012D
:102690000E94041CF82A4CE764E9C8010E94121D3C
:1026A000F82AC80149DDF82AAE014E5D5F4F60E9A6
:1026B000C8010E94041CF82A43E764E9C8010E948B
:1026C000121DF82AC80138DDF82AAE01465E5F4FB8
:1026D00060E9C8010E94041CF82A8A8C9B8CAC8C8F
:1026E000BD8CBA2CA92C982C882424013501662491
:1026F000772444E764E9C8010E94121DF82AC80142
:102700001BDDF82AAE01465E5F4F60E9C8010E94FA
:10271000041CF82A8A8C9B8CAC8CBD8C8B2C992445
:10272000AA24BB2484289528A628B72845E764E96D
:10273000C8010E94121DF82AC801FEDCF82AAE0169
:10274000465E5F4F60E9C8010E94041CF82A4A8C6B
:102750005B8C6C8C7D8C762C652C542C44246624EC
:10276000772446E764E9C8010E94121DF82AC801CF
:10277000E3DCF82AAE01465E5F4F60E9C8010E94C3
:10278000041CF82A8A8D9B8DAC8DBD8D8B2F9927CB
:10279000AA27BB27482A592A6A2A7B2A06C0812CE5
:1027A000912C5401412C512C320140E061E8C801C8
:1027B0000E94121DF82A46E06FEFC8010E94121D08
:1027C000F82AAE014A5D5F4F63E8C8010E947E1C93
:1027D000F82A4EA14B7F63E8C8010E94121DF82A17
:1027E00041E06FEFC8010E94121DF82A41E060E04D
:1027F000C8010E94121DF82A40E06FEFC8010E9434
:10280000121DF82A40E060E8C8010E94121DF82A53
:1028100009F07FC002C0F12C7CC0222011F0D0FE54
:1028200004C039A5311113C024C0F801EE5FFE4F7A
:1028300030823196C082DE0154967496C801835E60
:102840009E4F2D9121938E179F07D9F7EACFD1FC88
:1028500010C08FA1F801E052FF4F808388A5319608
:102860008083BE016F5F7F4FC8018E519F4F0E94D2
:1028700036328CA5882309F448C0D2FC46C08E8D20
:102880009F8DA8A1B9A1F801EB5FFE4F80839183D2
:10289000A283B3838AA19BA1ACA1BDA134968083FE
:1028A0009183A283B383349639E0880C991CAA1CC7
:1028B000BB1C3A95D1F780829182A282B3824114E7
:1028C000510461047104B1F0A3019201395141092D
:1028D0005109A8EEB3E00E94E930DC01CB0124E00D
:1028E000B695A795979587952A95D1F79195819556
:1028F000910902C080E090E0092E000CAA0BBB0BEE
:10290000F80184879587A687B787ED28EAA5FBA5F8
:10291000E0828F2DAC960FB6F894DEBF0FBECDBF10
:10292000DF91CF911F910F91FF90EF90DF90CF90AB
:10293000BF90AF909F908F907F906F905F904F90DF
:102940003F902F900895CF92DF92EF92FF920F93D6
:102950001F93CF93DF931F92CDB7DEB78C01E12C8D
:10296000F12C6C018EECC80ED11CF6018081AE01F9
:102970004F5F5F4F843069F463E1C801BFD799812D
:10298000292F2770987109F08AEF91E0243049F4DB
:1029900009C064E1C801B2D7811103C09981917067
:1029A00003C090E081110DC0913059F0FFEFEF1A94
:1029B000FF0A88ECE816F10419F0C801FDD6D5CF5E
:1029C00089EF0F90DF91CF911F910F91FF90EF90C2
:1029D000DF90CF900895CF93DF93EC01462F4160B5
:1029E00060E00E94121D81110FC0CE01ACDF811189
:1029F0000BC0CE0166D5811107C040E060E0CE017A
:102A0000DF91CF910C94121DDF91CF9108957F92A9
:102A10008F929F92AF92BF92CF92DF92EF92FF92EE
:102A20000F931F93CF93DF931F92CDB7DEB77C0137
:102A30004B015A01722E6C0183EEC81A8EEFD80A30
:102A4000F6011081198241E061E0C701EBD78111E5
:102A500011C060E4C701BFDF81110CC0F1E07F123B
:102A600009C000E021E0AE014F5F5F4FB401C70134
:102A7000D7D402C0F4011082811123C042E061E08A
:102A8000C701D0D7811111C060E0C701A4DF811157
:102A90000CC0F1E07F1209C001E020E0A501BE01F9
:102AA0006F5F7F4FC701BCD402C0F5011082811156
:102AB00008C0412F61E0C701B5D7811102C0F601FE
:102AC00010830F90DF91CF911F910F91FF90EF90A6
:102AD000DF90CF90BF90AF909F908F907F900895A0
:102AE000EF92FF920F931F93AB01FC01EB5BFE4F44
:102AF000E080F180349706E010E020E030E060EB09
:102B00008081B2D3892B11F08CEE01C080E01F913F
:102B10000F91FF90EF9008952F923F924F925F9206
:102B20006F927F928F929F92AF92BF92CF92DF92DD
:102B3000EF92FF920F931F93CF93DF93CDB7DEB742
:102B4000AA970FB6F894DEBF0FBECDBF1C017EA3BF
:102B50006DA358A74FA31F82188619861A861B8655
:102B60001C861D861E86198A1A8AFC01E85DFE4FA6
:102B700020813181388F2F8BAC014F5E5E4F5A8F91
:102B8000498FDA011C922C01BEEE4B1ABEEF5B0A94
:102B9000F20110823C01FDEE6F1AFEEF7F0AD301B5
:102BA0001C92FC01EC5EFE4F108231961082319631
:102BB000108241E06FEF36D78111EDC140E06FE444
:102BC000C10130D78111E7C14CE26EE4C1012AD7BF
:102BD0008111E1C140E06FEFC10124D78111DBC158
:102BE00044EB66EBC1011ED78111D5C140E060E81E
:102BF000C10118D78111CFC120E0AE014E5E5F4FF9
:102C0000BE016F5E7F4FC10102DF8111C4C11F820F
:102C1000188619861A86F101E95EFE4FFC8FEB8F4C
:102C20009E01295F3F4F4901A3E0AA2EB12CC12C80
:102C3000D12CE12CF12C8701298D3A8DAF0160E078
:102C4000C1010E9481208111A6C14F8158856985EB
:102C50007A854B8B5C8B6D8B7E8BBE01615F7F4F6A
:102C6000C101A2DA811197C18F8598896F89788D0A
:102C70006817790708F076C0A98DBA8D1C92F20109
:102C80001082D3011C9232961082319610823196B6
:102C900010828B899C89AD89BE898C549F4FAF4F20
:102CA000BF4F76E0B695A795979587957A95D1F71A
:102CB000880F991F880F991FFC01EF5CFC4F8081E2
:102CC0009181A281B381892B8A2B8B2BA1F1AE013B
:102CD000495F5F4F4A0163E0A62EB12CC12CD12C75
:102CE000EB88FC880D891E89298D3A8D4B8D5C8D72
:102CF00061E0C1010E94812081114DC16F81788501
:102D000089859A856B8B7C8B8D8B9E8BBE01615FD9
:102D10007F4FC10149DA81113EC18F859889AF8902
:102D2000B88DA817B90730F581E053E0452E512C36
:102D3000612C712C23C02B893C894D895E892C32F2
:102D400031054105510508F0C2CF2B893C894D89D9
:102D50005E892F5F3F4F4F4F5F4F2B8B3C8B4D8BCF
:102D60005E8B97CF80E0412C512C3201C12CD12CAD
:102D7000760108C080E0412C512C3201C12CD12CAD
:102D80007601C3942F8538894F89588D24173507CC
:102D900008F0E7C046E0E98DFA8DCE010196DC012E
:102DA00001900D924A95E1F7EF89F88D2E1B3F0BAC
:102DB000A90160E070E049A35AA36BA37CA323E0C0
:102DC00030E040E050E02D8F3E8F4F8F58A3A1019F
:102DD0004F5E5E4F5AA749A78C019E01255F3F4F6A
:102DE0004B895C896D897E898B8D9C8D9AD38B8470
:102DF0009C84AD84BE845FEF85169506A506B50656
:102E000009F4C8C04D8C5E8C6F8C78A06FEF461AA9
:102E1000560A660A760AD501C4018C549F4FAF4FFB
:102E2000BF4F36E0B695A795979587953A95D1F718
:102E3000880F991F880F991FFC01EF5CFC4F41E040
:102E400050E060E070E080819181A281B381892BA4
:102E50008A2B8B2B19F440E050E0BA014C155D052C
:102E60006E057F0509F096C0D501C40123E0B69533
:102E7000A795979587952A95D1F7B501A401477035
:102E800055276627772786309105A105B10508F0FB
:102E900081C0E98DFA8DE80FF91F81E090E001C053
:102EA000880F4A95EAF79081892B8083698D7A8D06
:102EB000C10116DE81116FC0BE01615F7F4FC1018C
:102EC00073D9811168C08F859889AF89B88DA8178B
:102ED000B90721F0AC014A1B5B0B02C040E050E097
:102EE00060E070E0EF89F88DE817F907F8F489A140
:102EF0009AA1ABA1BCA184179507A607B70780F5D7
:102F0000BE016F5F7F4FC101EBDD96E0FE013196A0
:102F1000D101AF5EBE4F01900D929A95E1F78111FC
:102F20003AC04D8C5E8C6F8C78A01AC0D501C4015C
:102F30000196A11DB11D8B8B9C8BAD8BBE8B86E04A
:102F4000E9A5FAA5D80101900D928A95E1F74D8E79
:102F50005E8E6F8E78A249A35AA36BA37CA33DCF4C
:102F60008C2DADA1BEA14D925D926D927C92139776
:102F7000EFA1F8A58083F101EC5FFE4F81E0808333
:102F800032978C918083AFA1B8A58C9131968083C4
:102F900080E001C08EECAA960FB6F894DEBF0FBE9B
:102FA000CDBFDF91CF911F910F91FF90EF90DF90F8
:102FB000CF90BF90AF909F908F907F906F905F90D9
:102FC0004F903F902F900895E3E1F5E0A089B189FB
:102FD00082E08C93A485B5851C92A685B7858FEC7D
:102FE0008C93108EA489B58986E08C93A289B389CD
:102FF0008C9180618C93A289B3898C9188608C9329
:10300000A289B3898C9180688C930288F389E02D22
:1030100080818F7D8083089590E0FC01ED5DFD4F00
:103020002491FC01E352FE4F8491882399F090E0B3
:10303000880F991FFC01ED53FE4FA591B491FC013F
:10304000E755FE4F859194918FB7F894EC91E22B60
:10305000EC938FBF089524EB35E030932D06209339
:103060002C0625ED35E030932F0620932E0620ED1B
:1030700037E0DC010E942C322CE231E040E050E0ED
:103080000E94CD30DA01C9018C509E4FAF4FBF4F27
:103090009093310680933006609124067091250646
:1030A00080912C0690912D0668177907B9F420912C
:1030B00026063091270680912E0690912F0628171C
:1030C0003907E1F4209128063091290680913006D5
:1030D000909131062817390789F408956817790700
:1030E00018F46F5F7F4F05C08617970738F461505B
:1030F0007109709325066093240607C070932D060E
:1031000060932C066115710551F08AEE97E00E94DC
:10311000270F80911C0690911D060E945F0E8091E2
:103120002E0690912F06609126067091270668174B
:10313000790718F46F5F7F4F05C08617970738F43B
:1031400061507109709327066093260607C070933B
:103150002F0660932E066115710551F087EE97E0FA
:103160000E94270F80911E0690911F060E945F0EFD
:103170008091300690913106609128067091290661
:103180006817790718F46F5F7F4F05C08617970798
:1031900038F461507109709329066093280608C0BD
:1031A00070933106609330066115710509F474CF90
:1031B00084EE97E00E94270F8091200690912106CF
:1031C0000E945F0E69CF009761F0FC010190002022
:1031D000E9F73197AF01481B590BBC0183E195E03A
:1031E00032C780E090E008958F929F92AF92BF9295
:1031F0000F931F93CF93DF93CDB7DEB7A1970FB691
:10320000F894DEBF0FBECDBF19A2423008F44AE0E9
:103210008E010F5D1F4F842E912CA12CB12CA50186
:1032200094010E94AB30E62FB901CA010150110987
:10323000EA3014F4E05D01C0E95CD801EC93232B83
:10324000242B252B61F7C801BEDFA1960FB6F89499
:10325000DEBF0FBECDBFDF91CF911F910F91BF9009
:10326000AF909F908F9008958F929F92AF92BF9250
:10327000CF92DF92EF92FF920F931F93CF93DF9342
:103280005A014901E70191E09093120580931105DD
:103290001092100510920F05E881F9810190F081DC
:1032A000E02DC701199568017401C114D104E1042E
:1032B000F10481F0E881F9810190F081E02DD501E0
:1032C0006D915D01CE011995B1E0CB1AD108E108ED
:1032D000F108EBCF61E0CE010E944A0980E090E066
:1032E000DF91CF911F910F91FF90EF90DF90CF90E2
:1032F000BF90AF909F908F9008958F929F92AF92C2
:10330000BF92CF92DF92EF92FF920F931F93CF93D2
:10331000DF93D82E5A014901E70181E0809312051D
:10332000D09211051092100510920F05E881F981D5
:103330000190F081E02DC701199561E0C7010E945D
:103340004A098091EC048111FCCF902F013208F0E2
:1033500090E281E08093EC048093EB042FEF2093C4
:10336000EA041092E904290F2093E8048093E7040B
:103370008091E704DD0CD82AD092E7048091E6041E
:10338000813061F41092E6048091E7048093BB00E1
:103390008091BC0083FDF8CF85EC01C085EE809361
:1033A000BC008091EC048130E1F38091E90489173D
:1033B00010F49091E904E6ECF4E0AFEEB4E080E0C4
:1033C000891721F021912D938F5FFACF1092EE048F
:1033D0008093ED0468017401C114D104E104F10487
:1033E00081F0E881F9810284F385E02DCE01199501
:1033F000F50181935F01F1E0CF1AD108E108F108EE
:10340000EBCF80E090E0DF91CF911F910F91FF9083
:10341000EF90DF90CF90BF90AF909F908F900895E6
:103420009F92AF92BF92CF92DF92EF92FF920F9353
:103430001F93CF93DF931F92CDB7DEB77C015B0163
:103440006A01922E198241E06FEFECD2182F40E012
:1034500060E0C701E7D2182B40E06FEFC701E2D26E
:10346000182B992029F0A5016BECC70147D2182B26
:10347000002339F0AE014F5F5F4F6EEEC7013ED2C1
:10348000182B41E06FEFC701CDD2182B41E060E06F
:10349000C701C8D2182B40E06FEFC701C3D2998192
:1034A0009F7EF6019083812B0F90DF91CF911F912A
:1034B0000F91FF90EF90DF90CF90BF90AF909F90D3
:1034C0000895EF92FF920F931F93CF93DF931F9274
:1034D000CDB7DEB77C0100E041E06BE0C701A2D2CE
:1034E000182F40E06BE0C7019DD2182BAE014F5F53
:1034F0005F4F63E1C70102D2812B0F5F9981977003
:1035000029F0033029F0882339F303C0033009F48C
:1035100084EF0F90DF91CF911F910F91FF90EF906B
:1035200008954F925F926F927F928F929F92AF9287
:10353000BF92CF92DF92EF92FF920F931F93CF93A0
:10354000DF93EC01F9010FEF1FEF98010083118366
:10355000228333832A013B0183E076946794579456
:1035600047948A95D1F76A017B0187E0C822DD2460
:10357000EE24FF245301420193E0880C991CAA1CFD
:10358000BB1C9A95D1F79301820140E006301105EA
:1035900021053105C8F5411137C0DE01A00FB11F6B
:1035A0006C91401651066206730651F470E00C2CC3
:1035B00002C0759567950A94E2F7D701C60103C06A
:1035C00080E090E0DC0160FF0CC0AC01BD01480D63
:1035D000591D6A1D7B1D408351836283738341E0C3
:1035E00009C066950196A11DB11D88309105A10500
:1035F000B10549F70F5F1F4F2F4F3F4F88E0880EEF
:10360000911CA11CB11CC2CFDF91CF911F910F91D2
:10361000FF90EF90DF90CF90BF90AF909F908F90F2
:103620007F906F905F904F900895CF92DF92EF92CE
:10363000FF920F931F93CF93DF936C018B017A015D
:10364000EC01C350D74F888187FF04C0FB01118272
:10365000108224C02CE02C9DC0012D9D900D1124C2
:103660002881AC01420F511D27FD5A9520912C0451
:1036700030E04217530794F42881AC01420F511DEA
:1036800027FD5A959A01FA01EE0FFF1F2E0F3F1FDB
:10369000F901E35DFB4F208126FD19C088818F5F12
:1036A00088832CE02C9DC0012D9D900D1124288134
:1036B000AC01420F511D27FD5A9520912C0430E09A
:1036C00042175307BCF428812C3044F113C02881E1
:1036D000820F911D27FD9A95FC01EE0FFF1F8E0FA3
:1036E0009F1FFC01E35DFB4F808160E08F730E94B0
:1036F0009A0CD4CFF80180819181049680349C4942
:1037000018F480E49CE904C0F8018081918104965A
:10371000F701918380838FEF888345C0F801408152
:1037200051812881BC01620F711D27FD7A959B0193
:10373000FB01EE0FFF1F2E0F3F1FF901E35DFB4F53
:1037400021813281240F351FF701318320832881A5
:10375000AC01420F511D27FD5A959A01FA01EE0F57
:10376000FF1F2E0F3F1FF901E35DFB4F208126FF56
:103770001AC02881820F911D27FD9A95FC01EE0F3A
:10378000FF1F8E0F9F1FFC01E35DFB4F808161E0F7
:103790008F73DF91CF911F910F91FF90EF90DF908A
:1037A000CF900C949A0CDF91CF911F910F91FF90C5
:1037B000EF90DF90CF900895CF93DF9300D01F92CA
:1037C000CDB7DEB719821A821B821C8289819A8149
:1037D000AB81BC818A3F9105A105B10568F4000069
:1037E00089819A81AB81BC810196A11DB11D89831C
:1037F0009A83AB83BC83EACF80E00F900F900F9049
:103800000F90DF91CF910895CF92DF92EF92FF92C8
:103810000F931F93CF93DF9300D01F92CDB7DEB7E6
:103820006A01FC01EB5BFE4FE080F180349704E01D
:1038300010E020E030E0AE014F5F5F4F80815DDD42
:1038400049815A8154274527542760E070E0762F3C
:10385000652F542F44272B81422B762F652F542F11
:1038600044272C81422BF60140835183628373836A
:10387000892B11F480E001C08CEE0F900F900F9017
:103880000F90DF91CF911F910F91FF90EF90DF90FC
:10389000CF900895CF92DF92EF92FF920F931F93F4
:1038A000CF93DF931F921F92CDB7DEB76A01FC0161
:1038B000EB5BFE4FE080F180349702E010E020E007
:1038C00030E0AE014F5F5F4F808117DD29813A8183
:1038D000322723273227F60131832083892B11F4E5
:1038E00080E001C08CEE0F900F90DF91CF911F917F
:1038F0000F91FF90EF90DF90CF900895EF92FF929D
:103900000F931F93FC01EB5BFE4FE080F180349737
:1039100001E010E020E030E08081EFDC892B11F045
:103920008CEE01C080E01F910F91FF90EF90089501
:103930008F929F92AF92BF92CF92DF92EF92FF92BF
:103940000F931F93CF93DF931F921F92CDB7DEB7D4
:10395000962E842EB22EFC01EF5BFE4FA0806C01F0
:103960002BEBC21A2EEFD20AF601E080F18001E0C3
:1039700010E020E030E0AE014E5F5F4F8A2DBDDCED
:10398000892B11F08CEE15C02A8128212B292A833E
:10399000F601E080F180298301E010E020E030E0D2
:1039A000AE014F5F5F4F692D8A2D5EDC892B51F789
:1039B00080E00F900F90DF91CF911F910F91FF90BA
:1039C000EF90DF90CF90BF90AF909F908F90089531
:1039D000EF92FF920F931F93CF93DF931F921F924B
:1039E000CDB7DEB7FC01EF5BFE4F70813496E0800F
:1039F000F1804A83598302E010E020E030E0AE011C
:103A00004F5F5F4F872F30DC892B11F08CEE01C0A8
:103A100080E00F900F90DF91CF911F910F91FF9059
:103A2000EF900895EF92FF920F931F93CF93DF9340
:103A30001F92CDB7DEB7FC01EF5BFE4F708134966D
:103A4000E080F180498301E010E020E030E0AE0149
:103A50004F5F5F4F872F08DC892B11F08CEE01C080
:103A600080E00F90DF91CF911F910F91FF90EF9029
:103A700008950F931F93CF93DF931F92CDB7DEB7B7
:103A80008A01662339F0613091F4AE014F5F5F4FD8
:103A900060E704C0AE014F5F5F4F60E52FDF81112B
:103AA00007C099819F5F990FF801908301C08CEF47
:103AB0000F90DF91CF911F910F9108952F923F9218
:103AC0004F925F926F927F928F929F92AF92BF922E
:103AD000CF92DF92EF92FF921F93CF93DF93CDB7F8
:103AE000DEB72B970FB6F894DEBF0FBECDBF6C01CB
:103AF0001A011B861F821E82633048F5AE01465FA5
:103B00005F4F60E0B6DF182F811107C0AE01455F3F
:103B10005F4F66E4C601F2DE182FAA85B0E020E010
:103B20003FE24AE350E00E94E9302B013C0124EFE0
:103B3000420E21E0521E611C711CCB84D12CE12C61
:103B4000F12C8FEFC81AD80AE80AF80A3FC0633090
:103B500009F04FC0AE01465F5F4F60E08ADF182F6B
:103B60008111D5C0AE01465F5F4F60E0C60181DFC5
:103B7000182F811107C0AE014A5F5F4F61E5C60192
:103B800089DE182FEE81FF81AA85B0E020E03FE2B8
:103B90004AE350E00E94E9302B013C0124EF420E41
:103BA00021E0521E611C711C6F01DD24E12CF12CFF
:103BB00004C0CC0CDD1CEE1CFF1CFA95D2F78FEF75
:103BC000C81AD80AE80AF80AEE24FF2498EE892ECB
:103BD00093E0992EA12CB12CC301B201A50194014F
:103BE0000E94AB30CA01B901A70196010E949C3026
:103BF00079C0643009F08FC0BE016F5F7F4F0E94B3
:103C000033068C81882321F1AE01465F5F4F60E06F
:103C1000C6012FDF182F811140C0AE014A5F5F4FF0
:103C200061E5C60137DE182F2E813F81C901992732
:103C3000A0E0B0E004C0880F991FAA1FBB1F3A95EF
:103C4000D2F70196A11DB11D7C01111128C002C03F
:103C5000E12CF12CAE01465F5F4F61E0C60109DF48
:103C6000182F81111CC0AE01485F5F4F61E7C6018C
:103C700011DE182F28853985D901BB27CD01A0E099
:103C8000B0E004C0880F991FAA1FBB1F3A95D2F756
:103C90000196A11DB11D6C0104C0E12CF12CC12CB9
:103CA000D12CAA85B0E020E03FE24AE350E00E9438
:103CB000E9302B013C01E4EF4E0EE1E05E1E611C99
:103CC000711C88EE882E83E0982EA12CB12CC301A4
:103CD000B201A50194010E94AB30D601AE19BF0913
:103CE0000E94E9306B017C01C301B20120ED37E095
:103CF00040E050E00E94AB30C701B601620F731F75
:103D0000841F951FA50194010E94AB3008C020E0DC
:103D100030E0A90104C020E030E0A90110E0F10189
:103D20002083318342835383812F2B960FB6F894DF
:103D3000DEBF0FBECDBFDF91CF911F91FF90EF90FF
:103D4000DF90CF90BF90AF909F908F907F906F90BB
:103D50005F904F903F902F9008952F923F924F92F7
:103D60005F926F927F928F929F92AF92BF92CF920B
:103D7000DF92EF92FF920F931F93CF93DF93CDB714
:103D8000DEB769970FB6F894DEBF0FBECDBF00ED6A
:103D900017E020E030E00B871C872D873E871F86C9
:103DA000188A198A1A8A40322EE452076105710571
:103DB00008F42FC14E8B5F8B688F798F8C01BE0109
:103DC0006A5F7F4F0E943306811124C1CE88DF884D
:103DD000E88CF98C38EEC31A38E0D30AE108F10810
:103DE0008E81811107C08F81811104C0888588234D
:103DF00009F442C0AE01455F5F4F62E0C8015EDE7C
:103E0000811108C18E81882391F08B859C85AD85B9
:103E1000BE85825B9D4FAF4FBF4F8C159D05AE0594
:103E2000BF0508F0F6C0C81AD90AEA0AFB0A888555
:103E3000882369F08B859C85AD85BE858E549D4F0A
:103E4000AF4FBF4F880F991FAA1FBB1F0BC08F8199
:103E5000882391F08B859C85AD85BE858C569D4FC2
:103E6000AF4FBF4F8C159D05AE05BF0508F0D1C003
:103E7000C81AD90AEA0AFB0A89858823D1F0AE015B
:103E8000415F5F4F63E0C80119DE4F85588969893A
:103E90007A894C565D4F6F4F7F4F4C155D056E050F
:103EA0007F0508F0B6C08111B5C0C41AD50AE60A6C
:103EB000F70A8A85882309F4AAC0BE016F5F7F4F85
:103EC000C8010E9433068C81882339F1AE014B5E14
:103ED0005F4F60E0C801CDDD81118FC0AE014D5E46
:103EE0005F4F61E5C801D6DC811187C08B899C8951
:103EF0001C013324A10160E070E04A015B0104C0B1
:103F0000880C991CAA1CBB1C9A95D2F7D501C40138
:103F10000196A11DB11D1C0102C0212C312CAE0146
:103F20004B5E5F4F61E0C801A4DD811166C026E2EF
:103F3000C21A22E0D20AE108F108AD89B0E020E01F
:103F40003FE24AE350E00E94E9304B015C0134EF6C
:103F5000830E31E0931EA11CB11CA8EEB3E0A701B3
:103F600096010E94E9302B013C01C501B40120ED0E
:103F700037E040E050E00E94AB30420E531E641E1A
:103F8000751EC501B40128EE33E040E050E00E9408
:103F9000AB30C301B2010E94AB30220D331D21159D
:103FA0003105E9F0A90160E070E041505109610973
:103FB0007109212C312CDB01CA018827892B8A2B1E
:103FC0008B2B41F076956795579547958FEF281A7B
:103FD000380AF1CF322C2224420D531D02C040E09A
:103FE00050E061E7C801F4DC811107C0F801E1533A
:103FF000FF4FC082D182E282F3828E889F88A88C94
:10400000B98CF801828A938AA48AB58A03C080E0B9
:1040100001C08CEF69960FB6F894DEBF0FBECDBF1E
:10402000DF91CF911F910F91FF90EF90DF90CF9094
:10403000BF90AF909F908F907F906F905F904F90C8
:104040003F902F900895CF92DF92EF92FF920F93BF
:104050001F93CF93DF936C017A018B01C0E0D0E016
:10406000CE15DF0581F0D8016D918D01D601ED915E
:10407000FC910190F081E02DC6011995892B11F07A
:104080002196EECF7E01C701DF91CF911F910F9155
:10409000FF90EF90DF90CF9008950F931F930E94B1
:1040A000D10E60931B0570931C0580931D059093A2
:1040B0001E0583E195E00E94C80997FF1FC00E947A
:1040C000D10E00911B0510911C0520911D0530910A
:1040D0001E05DC01CB01801B910BA20BB30B0091E1
:1040E0001705109118052091190530911A058017B0
:1040F0009107A207B307E8F28FEF9FEF1F910F918F
:1041000008952F923F924F925F926F927F928F927B
:104110009F92AF92BF92CF92DF92EF92FF920F9356
:104120001F93CF93DF93CDB7DEB763970FB6F894A5
:10413000DEBF0FBECDBF988B8F87698B5B8B4A8BA1
:10414000190127013801EF82F88609871A871B8633
:104150001C861D861E86EE24E394F12C8B859C859F
:10416000AD85BE858A159B05AC05BD0509F466C005
:104170009E01295F3F4FB301A2018A899B89D1D952
:104180008F819885A985BA858F3FEFEF9E07AE078F
:10419000BE0709F455C0AC01BD014C545F4F6F4FD1
:1041A0007F4FE6E07695679557954795EA95D1F765
:1041B000440F551F440F551FFA01EF5CFC4F21E0DF
:1041C0004081518162817381452B462B472B09F435
:1041D00020E0F989F21334C08C019D0143E036954B
:1041E0002795179507954A95D1F7AC01BD01477002
:1041F000552766277727063011052105310558F424
:10420000F101E00FF11F970101C0220F4A95EAF773
:104210003081232B20832C013D012FEF421A520ABB
:10422000620A720A8B859C85AD85BE850196A11DAB
:10423000B11D8B879C87AD87BE8790CFD12C02C0E4
:104240002EECD22ED4014D925D926D927C921397FA
:10425000D1102FC0B1018F8598890E947015D82E7A
:10426000811127C0EF85F889EB5BFE4FE080F1807C
:10427000EF85F889EF5BFE4F06E010E020E030E0CC
:10428000AE014F5F5F4F60EB808137D8892B11F013
:104290009CEED92ED101FE013196CE0107963D91BB
:1042A0002191321304C0E817F907C9F702C08EEC58
:1042B000D82E8D2D63960FB6F894DEBF0FBECDBFFE
:1042C000DF91CF911F910F91FF90EF90DF90CF90F2
:1042D000BF90AF909F908F907F906F905F904F9026
:1042E0003F902F9008950C94E3181092EE041092D2
:1042F000ED041092100510920F051092EC0481E06D
:104300008093EB041092E60461E084E10E949A0C31
:1043100061E085E10E949A0CE9EBF0E080818E7FFC
:10432000808380818D7F808388E48093B80085E4DA
:104330008093BC008AE991E090930409809303097B
:104340008BE991E09093020980930109089581E03F
:104350008093120580E7809311051092100510924A
:104360000F0562E080EB95E00E94F30161E080EBD5
:1043700095E00C944A0960E070E082E00E94980D9C
:1043800060E070E083E00E94980D60E070E08AE0F9
:104390000E94980D60E070E08BE00C94980DE09125
:1043A0001806F0911906808191818132910509F4F6
:1043B0004EC07CF48630910519F12CF4009701F180
:1043C0000397F1F0089589309105D1F00F9729F105
:1043D000089583369105D9F13CF48D32910579F138
:1043E0008B349105D1F008958D3421E0920741F08E
:1043F0008A3922E0920721F089369105E1F51FC044
:104400006CE770E082E00E94980D6CE770E083E05A
:104410000E94980D6CE770E00CC06CE770E082E0E1
:104420000E94980D60E070E083E00E94980D60E0CB
:1044300070E08AE00E94980D6CE770E019C060E0BF
:1044400070E082E00E94980D6CE770E007C06CE7B6
:1044500070E082E00E94980D60E070E083E00E94CE
:10446000980D6CE770E08AE00E94980D60E070E0C3
:104470008BE00C94980D0895CF92DF92EF92FF920B
:10448000CF930BDEFC0197FD0BC08D32910561F0DF
:10449000C0970A9748F083E195E00E94B409F1CFF4
:1044A00060E070E0CB013FC0C12CD12C7601C0E0B0
:1044B000E130F10501F1ED32F105E1F0CF01C097F6
:1044C0000A97C8F4AAE0B0E0A70196010E94E9307B
:1044D0006F01FF0FEE08FF08DC01CB018C0D9D1D65
:1044E000AE1DBF1D6C017D0120E3C21AD108E10899
:1044F000F10801C0C1E083E195E00E94B409CDDD7F
:10450000FC01C0970A97A0F2E130F10589F2CC23B3
:1045100041F066277727CB016C197D098E099F0929
:1045200002C0C701B601CF91FF90EF90DF90CF900E
:1045300008951F93CF93DF9300D01F92CDB7DEB7BE
:1045400083E195E00E94B40983E195E00E94B409FB
:1045500010E08A3379F0E1E0F0E0EC0FFD1FE10FAD
:10456000F11D17FDFA9580831F5F83E195E00E949E
:10457000B409EFCFCE0101960E945E2F182F83E180
:1045800095E00E94B409BC0177276053710962303D
:10459000710530F4812F0E949A0C02C08D3031F0E9
:1045A00083E195E00E94B4098A30C1F783E195E088
:1045B0000E94C8098A3021F483E195E00E94B40981
:1045C0000F900F900F900F90DF91CF911F91089552
:1045D000CF93DF93CDB7DEB7C355D1090FB6F894AB
:1045E000DEBF0FBECDBF789484B5826084BD84B534
:1045F000816084BD85B5826085BD85B5816085BDDE
:1046000080916E00816080936E0010928100809195
:10461000810082608093810080918100816080931D
:104620008100809180008160809380008091B10042
:1046300084608093B1008091B00081608093B0006D
:1046400080919100826080939100809191008160BF
:104650008093910080919000816080939000809180
:10466000A10082608093A1008091A100816080936D
:10467000A1008091A00081608093A0008091210121
:1046800082608093210180912101816080932101CA
:104690008091200181608093200180917A00846064
:1046A00080937A0080917A00826080937A00809172
:1046B0007A00816080937A0080917A00806880938C
:1046C0007A001092C1001092FE051092FF05109220
:1046D0000006109201061092BE051092BF051092BE
:1046E000C0051092C1050E94D10E6B017C014B01E7
:1046F0005C0128EB820E2BE0921EA11CB11C0E94D3
:10470000D10E6C157D058E059F0528F0861697063F
:10471000A806B906A0F768EE73E080E090E00E947A
:10472000990E0E94E4170E94D10E6093BE0570930B
:10473000BF058093C0059093C10581E493E0D3DD6C
:104740000E94D10E6B017C014B015C013AE0830EAB
:10475000911CA11CB11C0E94D10E6C157D058E050B
:104760009F0528F086169706A806B906A0F711E05F
:104770001093D2050E94D10E6093BE057093BF05C1
:104780008093C0059093C10582E593E0ACDD0E9463
:10479000E41764EF71E080E090E00E94990EA5DDDF
:1047A0000E94E41789E593E09EDDD1DD80917C07CE
:1047B00090917D07FC01EF5BFE4F29E2208331964B
:1047C0001083319620E931E031832083329620EB4B
:1047D00035E03183208389DD21E04EEF69E885E310
:1047E00096E0A6D8811105C040E068E885E396E030
:1047F00019D92E014BE3440E511CA20160EC85E354
:1048000096E07CD81092140788EE93E090936F079F
:1048100080936E0780E991E0909371078093700711
:1048200085E89BE6A1E0B0E0809372079093730760
:10483000A0937407B093750784EA90E7A9E0B0E00D
:104840008093FD069093FE06A093FF06B0930007A9
:10485000109252061092530610925406109255066A
:10486000CE0101961C01BC0185E396E00E94600622
:10487000182F81110AC019821A828AE3F101A5E476
:10488000B6E001900D928A95E1F784E690E090936E
:1048900057078093560784E893E0909359078093D5
:1048A000580784EF91E090935B0780935A0780E06C
:1048B0009AE090935E0780935D0781E080936D0797
:1048C00041E060E885E396E0ADD8082F41E06FEF66
:1048D00085E396E0A7D8802B182B40E060E085E3C5
:1048E00096E0A0D8182BAE01415C5F4F61E985E3EB
:1048F00096E004D8182B8FAD80935C0741E060E010
:1049000085E396E08FD8182B40E06FEF85E396E0C3
:1049100089D8182B40E060E885E396E083D8182B0F
:10492000F4E3CF2EF6E0DF2E5601E12CF12C01E06E
:104930001111B8C093E0E916F10459F14CF4B1E05B
:10494000EB16F10481F0E2E0EE16F104F9F008C094
:10495000F4E0EF16F10401F125E0E216F104F9F0BC
:1049600000935A068DC5D501D2964D915D916D91FA
:104970007C91D597E9E07695679557954795EA95A7
:10498000D1F764E485E396E023D810C000935C0679
:1049900077C500935D0674C520E04EEF02C020E0AD
:1049A0004FEE60E685E396E00E94981C882309F4A8
:1049B00067C5182FBFEFEB1AFB0AEFEFCE1ADE0A1E
:1049C000F4E0AF0EB11C26E0E216F10409F0B0CF1E
:1049D000111168C010925C0610925D0622E04EEF45
:1049E00060E685E396E00E94981C182F81115AC05A
:1049F00010925E0620E14FEE60E685E396E00E94AD
:104A0000981C182F81114EC010925F0680E090E034
:104A1000A2E1B0E08093660690936706A0936806D3
:104A2000B093690680915B06811132C080E090E40A
:104A3000A0E0B0E080936A0690936B06A0936C06AA
:104A4000B0936D0680E090E0A3E2B0E080936E0644
:104A500090936F06A0937006B09371061092720641
:104A60001092730610927406109275068FEF809361
:104A700052074FEF61E085E396E00E94121D182F68
:104A800081E08093540711110DC0109239070AC0BC
:104A900040E250E064E485E396E00E94E81C182FB1
:104AA000882321F21093340649E26AE880917C075A
:104AB00090917D070E94121D809334066AE070E099
:104AC00080E090E00E94990E809134068111D7C158
:104AD000E0917C07F0917D07EF5BFE4F89E28083D8
:104AE00062E085E396E00E942B11811147C080911E
:104AF0001507811107C063EA73E08EEB97E00E940F
:104B000036320AC01091160767E177E08EEB97E026
:104B10000E943632111103C060E673E00EC01332FA
:104B200028F4103229F06CE673E007C0173218F44D
:104B300068E773E002C064E873E08EE797E00E94E4
:104B4000363269E973E08EE997E00E9436324EED25
:104B500057E060EC85E396E00E947E1C81110EC058
:104B6000A10162EC85E396E00E947E1C91E09093A7
:104B7000DF07998192959F709093E00780933406A8
:104B800081110BC08091DF07813021F48091E00713
:104B9000813019F08BEF80933406809134068111B7
:104BA000F2C060907C0770907D078AE3D1011D926E
:104BB0008A95E9F725961FAE1EAE259728961FAE5B
:104BC000289727961FAE279723961CAE1DAE1EAEC4
:104BD0001FAE239761E0C3010E942B11F301EE5F2A
:104BE000FE4FB0812D96BFAF2D97AB2EB12CC12CAF
:104BF000D12C3196208129962FAF2997223078F435
:104C0000213039F431E2A316B104C104D10438F4DF
:104C100011C04DE0A416B104C104D10458F0AE0196
:104C20004A5B5F4FBE01615C7F4FC3010E948C15E0
:104C3000982E73C041E06FEFC3010E94121D8111D5
:104C40001AC040E06FE4C3010E94121D811113C01D
:104C50004CE26EE4C3010E94121D81110CC040E0C1
:104C60006FEFC3010E94121D811105C044EB66EB7A
:104C7000C3010E94121D93012F5E3E4FD9011C9269
:104C8000F301EE5EFE4F1082319610823196108253
:104C900031961082319610822996BFAD2997E12C6A
:104CA000F12C8701BB23E9F0D801C7018C549F4F39
:104CB000AF4FBF4F46E0B695A795979587954A9514
:104CC000D1F7880F991F880F991FFC01EF5CFC4FEB
:104CD00080819181A281B381892B8A2B8B2B09F44E
:104CE000D3C34201A301495E5E4F29966FAD299758
:104CF000C30107DA982E811110C081E0F301EC5F47
:104D0000FE4F808332972D962FAD2D9720833196BD
:104D100029963FAD2997308302C0911032C0F3012C
:104D2000E85CFE4F80818111BCC33297A080B180C6
:104D3000BCC3911023C06C014FEFC41AD40A0F3FBB
:104D400009F031C4D501AC0DBD1D2C916C0152E0B0
:104D5000C50ED11C213009F4E6C308F4D0C32230BB
:104D600009F4F5C3233009F408C4ACEF9A2EC60148
:104D7000F501E80FF91F00810111DBCF992009F43B
:104D800042C4909234068091340681110CC0AE0169
:104D90004D5B5F4FB10180917C0790917D070E9430
:104DA0008C15809334068091340681110DC021E06A
:104DB000A201BE01615C7F4F80917C0790917D07CD
:104DC0000E9407158093340680913406811107C034
:104DD000E0917C07F0917D07108A10923406809153
:104DE0003406811108C0E0917C07F0917D0781E0D5
:104DF00085A3109234068091340681111DC0009164
:104E00007C0710917D07D801D5964D915D916D91EC
:104E10007C91D89739E076956795579547953A955F
:104E2000D1F764E4C8010E94E81C811103C091E03D
:104E3000F80196A38093340680913406811108C04E
:104E4000E0917C07F0917D0781E080A71092340605
:104E50008091340681110FC0E0917C07F0917D07AD
:104E6000FD9684ED98E0A0E0B0E080839183A2837A
:104E7000B38310923406809134068823A9F00CE4A1
:104E800011E0F8016491611105C081EA93E00E948C
:104E9000E31809C083E195E00E940D0A0F5F1F4FE0
:104EA000892B79F7F2CFFFCF84EA93E00E94E318D1
:104EB00081EA93E00E94E31868EC70E080E090E003
:104EC0000E94990E66E070E08AEE97E00E945D0F06
:104ED00067E070E087EE97E00E945D0F68E070E0A9
:104EE00084EE97E00E945D0F69E070E081EE97E04C
:104EF0000E945D0F86E990E00E942B1890E7C92E72
:104F000093E0D92E09E010E023E0E22EF12C0E947C
:104F1000D10E672B682B692B39F40E94D10E6230B9
:104F200071058105910570F10E94D10E8090C50335
:104F30009090C603A090C703B090C8036815790588
:104F40008A059B0540F46093C5037093C603809364
:104F5000C7039093C8038090C5039090C603A090A8
:104F6000C703B090C8039B01AC01281939094A094D
:104F70005B0949015A013AEF83169104A104B10477
:104F800008F04BC48091C4038111BAC183E195E05C
:104F90000E94D609181619060CF06FC26DDA4B0183
:104FA0005C0144E9841A41E0940AA108B10855E281
:104FB00085169104A104B10408F040C061E081E2CB
:104FC0000E949A0C61E083E20E949A0C60E085E204
:104FD0000E949A0C61E087E20E949A0C61E089E2EB
:104FE0000E949A0C60E08BE20E949A0C61E080E2E1
:104FF0000E949A0C61E082E20E949A0C60E084E2D6
:105000000E949A0C61E086E20E949A0C61E088E2BC
:105010000E949A0C60E08AE20E949A0C8091A100A2
:10502000887F8560809391008091B1008760809334
:10503000B10080918100887F85609FC04B015C0139
:10504000A9E68A1AA1E09A0AA108B108B4E28B166F
:105050009104A104B10408F040C061E081E20E9423
:105060009A0C61E083E20E949A0C60E085E20E9463
:105070009A0C61E087E20E949A0C61E089E20E944A
:105080009A0C60E08BE20E949A0C61E080E20E9440
:105090009A0C61E082E20E949A0C60E084E20E9435
:1050A0009A0C61E086E20E949A0C61E088E20E941C
:1050B0009A0C60E08AE20E949A0C8091A100887F9D
:1050C0008560809391008091B10087608093B100EA
:1050D00080918100887F8560D0C04B015C01E9EB45
:1050E0008E1AE1E09E0AA108B108F8E68F16F1E0F9
:1050F0009F06A104B10408F071C061E081E20E9442
:105100009A0C61E083E20E949A0C61E085E20E94C1
:105110009A0C61E087E20E949A0C61E089E20E94A9
:105120009A0C61E08BE20E949A0C61E080E20E949E
:105130009A0C61E082E20E949A0C61E084E20E9493
:105140009A0C61E086E20E949A0C61E088E20E947B
:105150009A0C61E08AE20E949A0C8091A100887FFB
:105160008360809391008091B100887F84608093F8
:10517000B10080918100887F83608093810060E02E
:105180008EE00E949A0C61E08FE00E949A0C61E030
:1051900081E10E949A0C60E080E10E949A0CE0910B
:1051A0001806F0911906F182E08260E08EE00E941C
:1051B0009A0C61E08FE00E949A0C61E081E10E940C
:1051C0009A0C60E080E10E949A0CE0911806F09140
:1051D0001906F182E082E3D84FD98DC04B015C0102
:1051E00021E0821A9108A108B10837E6831631E060
:1051F0009306A104B10408F06FC061E081E20E944F
:105200009A0C61E083E20E949A0C61E085E20E94C0
:105210009A0C61E087E20E949A0C61E089E20E94A8
:105220009A0C61E08BE20E949A0C61E080E20E949D
:105230009A0C61E082E20E949A0C61E084E20E9492
:105240009A0C61E086E20E949A0C61E088E20E947A
:105250009A0C61E08AE20E949A0C8091A100887FFA
:105260008360809391008091B100887F84608093F7
:10527000B10080918100887F83608093810061E02C
:105280008EE00E949A0C60E08FE00E949A0C60E031
:1052900081E10E949A0C61E080E10E949A0CE09109
:1052A0001806F09119061183008361E08EE00E94D8
:1052B0009A0C60E08FE00E949A0C60E081E10E940D
:1052C0009A0C61E080E10E949A0CE0911806F0913E
:1052D0001906118300837FCFDC01CB018D589140EB
:1052E000A109B1090697A105B10508F0C6C043D8C8
:1052F00081E08093C4038091C403882309F4BDC076
:1053000026D8B10180917C0790917D070E94A3026D
:10531000898D843019F089859A8502C080E090E0FB
:10532000853691050CF465C061E081E20E949A0C1B
:1053300061E083E20E949A0C61E085E20E949A0C8F
:1053400061E087E20E949A0C61E089E20E949A0C77
:1053500061E08BE20E949A0C61E080E20E949A0C6C
:1053600061E082E20E949A0C61E084E20E949A0C61
:1053700061E086E20E949A0C61E088E20E949A0C49
:1053800061E08AE20E949A0C8091A100887F83608C
:10539000809391008091B100887F84608093B100F8
:1053A00080918100887F83608093810060E08EE03F
:1053B0000E949A0C60E08FE00E949A0C61E081E10B
:1053C0000E949A0C61E080E10E949A0C60E08EE0FD
:1053D0000E949A0C60E08FE00E949A0C61E081E1EB
:1053E0000E949A0C61E080E10E949A0C0E94CF21F9
:1053F00044C00E94BB2186E990E00E942B18D09205
:105400003306C092320660912A0670912B06809175
:105410003206909133066817790729F168177907E2
:1054200018F46F5F7F4F05C08617970738F46150F7
:10543000710970932B0660932A060AC08091240696
:10544000909125069093330680933206892BD9F2EA
:1054500081EE97E00E94270F80912206909123060B
:105460000E945F0ED0CF68EE73E080E090E00E9473
:10547000990E8EE690E00E942B180E947A0A47CD82
:10548000D60196960C9396CABCE2EB16F104010580
:10549000110509F426CCEFEFEE1AFE0A0F4F1F4F4D
:1054A00003CC80E0A82E82E0B82E80E090E0F301EB
:1054B000EB5BFE4F2A96FFAFEEAF2A9793012F5B6F
:1054C0003E4F2E963FAF2EAF2E97A3014D5D5E4F00
:1054D0002C965FAF4EAF2C97D301AF5DBE4F609659
:1054E000BFAFAEAF6097B0976296FFAFEEAF629777
:1054F0002951310964963FAF2EAF649739CCD5015D
:10550000AC0DBD1D2C916C01A4E0CA0ED11C3381E1
:10551000822F90E0982F8827830F911D6096EEAD23
:10552000FFAD609727C0D501AC0DBD1D2C916C015E
:1055300034E0C30ED11C3381822F90E0982F88274E
:10554000830F911D2C96AEADBFAD2C9729C0D50110
:10555000AC0DBD1D2C916C01B4E0CB0ED11C338180
:10556000822F90E0982F8827830F911D6296EEADD1
:10557000FFAD629791838083FACBD501AC0DBD1D41
:105580002C916C0134E0C30ED11C3381822F90E04A
:10559000982F8827830F911D6496AEADBFAD649799
:1055A0008D939C93E4CB053008F0DFCBF501EC0D37
:1055B000FD1D60810296D501A80FB91FF201C02E12
:1055C000D12C9F01241935092C153D051CF42D9172
:1055D0002193F7CFC80ED91E2A96EEADFFAD2A97BC
:1055E000E080F18010E020E030E0A2012E96AEAD28
:1055F000BFAD2E978C910E943419892B09F4B7CB3B
:105600005CEE952EB4CB44E06AE0C3010E94121D0B
:10561000982E8111B6CB20E04FEE64E8C3010E94C2
:10562000981C982E8111ADCB84E0F301E253FF4F1B
:105630008083C3010E94611A982E8111A2CB41E0A0
:105640006FEFC3010E94121D982EAE014D5B5F4F9C
:1056500064E8C3010E944A1C982A40E06FEFC3012E
:105660000E94121D982A09F08CCBF301E853FF4FDA
:1056700025968EAD9FAD259744E0880F991F4A95DA
:10568000E1F7A0E0B0E080839183A283B383B1010E
:10569000C3010E946006982E811173CBAE01495B55
:1056A0005F4F69E0C3010E947E1C982E811169CB77
:1056B00028968FAD2897817028968FAF2897F30191
:1056C000E25EFE4F80838AE3F101D30150960190A0
:1056D0000D928A95E1F7AE01495B5F4F61E0C3012E
:1056E0000E947E1C982E81114CCB8301035E1E4FBD
:1056F00028968FAD2897F80180831BAEA20161E048
:10570000C3010E947E1C982E8BAD91103ACBF82FCE
:10571000FF7EFF2E84FF12C04F2F61E0C3010E9465
:10572000121D982E81112DCBD801FC92F3014289D4
:10573000538964897589C3010E94AD1E1BAEA20105
:1057400061E0C3010E947E1C982E8BAD911019CB95
:10575000F82FFB7FFF2E82FF12C04F2F61E0C301A5
:105760000E94121D982E81110CCBD801FC92F301DE
:105770004289538964897589C3010E94AD1E83E003
:10578000F301E15EFE4F8083AE014B5B5F4F60E053
:10579000C3010E94391D982E8111F3CA26968FAD40
:1057A0002697F301E852FF4F8083AE014B5B5F4FBA
:1057B00061E0C3010E94391D982E8111E2CA26962C
:1057C0008FAD2697F301ED52FF4F8083A20163E076
:1057D000C3010E94C805982E8111D3CA8BAD9CAD20
:1057E000ADADBEADF301EC52FF4F80839183A28338
:1057F000B383A20164E0C3010E94C805982E811101
:10580000C0CAF301E153FF4F8BAD9CADADADBEAD52
:1058100080839183A283B383B4CA6093C5037093DA
:10582000C6038093C7039093C80384EF91E0A0E080
:10583000B0E08093CA059093CB05A093CC05B093BC
:10584000CD051092CE051092CF051092D005109282
:10585000D1058091C2059091C305A091C405B09176
:10586000C5058093C6059093C705A093C805B0935E
:10587000C9050E94D10E6093C2057093C305809341
:10588000C4059093C50583E195E00E94C80984365C
:1058900011F40E9499220E94D10E6093BE0570936C
:1058A000BF058093C0059093C1050E94D10E4B01A6
:1058B0005C018FEA93E00E9473214AE061E070E0AE
:1058C00080E090E00E94F41886EB93E00E94732140
:1058D0004AE0C501B4010E94F41888EB93E00E94ED
:1058E00073218091C2059091C305A091C405B09128
:1058F000C505A5019401281B390B4A0B5B0BCA0196
:10590000B9014AE00E94F41888EB93E00E947321E9
:105910008091C2059091C305A091C405B091C505C1
:105920008090C6059090C705A090C805B090C905A5
:10593000BC01CD01681979098A099B094AE00E94D6
:10594000F4188AEB93E00E9473210E94D10E4AE082
:105950000E94F4188CEB93E00E94E31881EA93E034
:105960000E94E3180E94D10E4B015C012B013C0107
:1059700035E0430E511C611C711C0E94D10E68154C
:1059800079058A059B0528F04616570668067906AC
:10599000A0F783E195E00E94C809843611F40E94C3
:1059A00099220E94D10E6093C2057093C305809323
:1059B000C4059093C505E6CAFC0190912C04903370
:1059C000A0F481E0890F80932C049083892F90E0CC
:1059D000FC01EE0FFF1F8E0F9F1FFC01E35DFB4FCD
:1059E00088EB9BE09283818308958FEF80830895F5
:1059F0004F925F926F927F928F929F92AF92BF92DF
:105A0000CF92DF92EF92FF920F931F93CF93DF938A
:105A1000EC0187EF92E09983888381E08B831C8679
:105A20001D861E861F86188A198A1A8A1B8A1C8A56
:105A30001D8A1E8A1F8A812C912C80E8A82E8FE354
:105A4000B82E888E998EAA8EBB8E1C8E1D8E1E8EB1
:105A50001F8E88A299A2AAA2BBA21CA21DA21EA24E
:105A60001FA281E090E09DA78CA78FEF8FA718A6BB
:105A700019A61AA61BA66C834D8384E08E8385E04D
:105A80008F831EA61CAA1DAA1EAA1FAA18AE19AE95
:105A90001AAE1BAE1CAE1DAE1EAE1FAE8E01005C5C
:105AA0001F4FF80180829182A282B3821A821886E7
:105AB00019861A861B86CE010E94180DCC8CDD8CAF
:105AC000EE8CFF8CA5019401C701B6011CD288237E
:105AD00009F432C16CA97DA98EA99FA91AD2A70188
